:020000040000FA
:100000000C9458000C9480000C9480000C94800098
:100010000C9480000C9480000C9480000C94110AC5
:100020000C9480000C9480000C94BD090C9480000A
:100030000C9480000C94A6090C9480000C94800011
:100040000C943D080C9480000C9480000C9480006B
:100050000C9480000C9480000C9480000C94800020
:100060000C9487080C9480000000000025002800F4
:100070002B00040404040404040402020202020229
:10008000030303030303010204081020408001025C
:1000900004081020010204081020000000080002DB
:1000A0000100000304070000000000000000B5107C
:1000B00011241FBECFEFD8E0DEBFCDBF11E0A0E01E
:1000C000B1E0ECE0F2E202C005900D92A032B1077F
:1000D000D9F722E0A0E2B1E001C01D92A533B2073A
:1000E000E1F710E0C8E5D0E004C02197FE010E94CE
:1000F000FE10C735D107C9F70E94A40A0C94041159
:100100000C9400000895089590E0FC01E656FF4F1E
:100110002491FC01EA57FF4F3491FC01EE58FF4F48
:10012000E491EE23C9F0222339F0233001F1A8F441
:10013000213019F1223029F1F0E0EE0FFF1FE859CC
:10014000FF4FA591B4918FB7F894EC91611126C03F
:1001500030953E233C938FBF08952730A9F0283077
:10016000C9F0243049F7809180008F7D03C08091D1
:1001700080008F7780938000DFCF84B58F7784BD38
:10018000DBCF84B58F7DFBCF8091B0008F778093DC
:10019000B000D2CF8091B0008F7DF9CF3E2BDACF67
:1001A0003FB7F8948091920190919301A0919401AE
:1001B000B091950126B5A89B05C02F3F19F0019677
:1001C000A11DB11D3FBFBA2FA92F982F8827BC01B1
:1001D000CD01620F711D811D911D42E0660F771FD9
:1001E000881F991F4A95D1F708958F929F92AF92D9
:1001F000BF92CF92DF92EF92FF924B015C010E947F
:10020000D0006B017C010E94D0006C197D098E0921
:100210009F09683E734081059105A8F321E0821A89
:100220009108A108B10888EEC80E83E0D81EE11C31
:10023000F11C81149104A104B10429F7FF90EF90FF
:10024000DF90CF90BF90AF909F908F9008952091B6
:100250006A01260F3327331F21323105ECF4209138
:10026000FF01FC0190E080E0243069F082E0089515
:10027000A0916A012191AC01465B5E4FA40FB52F9E
:10028000B11D2C930196861798F380916A01680F2F
:1002900060936A0180E0089581E008951092FF0163
:1002A00081E08093FE011092D90161E082E10E9419
:1002B000840061E083E10E948400E9EBF0E080814A
:1002C0008E7F808380818D7F808388E48093B800D7
:1002D00085E48093BC000895CF93DF9391E09093E1
:1002E00049018823B9F0C091B800D091BA0080913B
:1002F000BC008A7B8093BC0060E082E10E948400A5
:1003000060E083E10E9484000E944E01D093BA0015
:10031000C093B800DF91CF910895CF92DF92EF9212
:10032000FF920F931F93CF93DF93D091340281E01C
:10033000D13208F09CC0C09133020E94D0006B0102
:100340007C018091FF0181116CC082E08093FF01EC
:1003500081E08093FE018FEF8093FD011092FC01FC
:10036000D093FB01A3E1B2E0EBEDF1E080E0D81324
:100370008DC01092DA018091DA01CC0FC82BC093A6
:10038000DA018091D901813009F084C01092D9013D
:100390000E94D0006B017C018091DA018093BB0048
:1003A0008091010290910202A0910302B091040297
:1003B000892B8A2B8B2BA1F00E94D0000091010287
:1003C0001091020220910302309104026C197D0900
:1003D0008E099F09061717072807390708F442C036
:1003E0008091BC0083FDD8CF85EC8093BC000E9437
:1003F000D0006B017C018091FF01823009F44CC078
:100400008091FD018F3F09F469C08091FD01803228
:1004100009F466C08091FD01803309F463C084E073
:1004200026C08091010290910202A0910302B09136
:100430000402892B8A2B8B2B09F483CF0E94D000D6
:1004400000910102109102022091030230910402F6
:100450006C197D098E099F090617170728073907A8
:1004600008F06FCF809100020E946C0185E010922D
:1004700012021092340210921102DF91CF911F915B
:100480000F91FF90EF90DF90CF9008959D91919301
:100490008F5F6DCF85EEA9CF80910102909102020E
:1004A000A0910302B0910402892B8A2B8B2B09F4B3
:1004B000A2CF0E94D000009101021091020220916F
:1004C0000302309104026C197D098E099F090617F9
:1004D00017072807390708F08ECFC4CF80E0C7CFB1
:1004E00082E0C5CF83E0C3CF0895E0919B01809166
:1004F0009A01E81730F4F0E0E75DFE4F808190E06C
:1005000008958FEF9FEF089590919B0180919A013C
:100510002FEF3FEF981748F4E92FF0E0E75DFE4F2B
:10052000208130E09F5F90939B01C90108958091E5
:100530009A0190919B01891B990B0895CF92DF92AC
:10054000EF92FF920F931F93CF93DF937C01CB0128
:100550008A0120911102222389F0EB016B01C40E64
:10056000D51ECC15DD0569F06991D701ED91FC919F
:100570000190F081E02DC7010995F3CF642F0E940F
:100580002701C801DF91CF911F910F91FF90EF904C
:10059000DF90CF900895CF93DF931F92CDB7DEB752
:1005A0006983209111022223F9F020913402203234
:1005B00058F021E030E0FC013383228390E080E0BA
:1005C0000F90DF91CF91089580911202E82FF0E013
:1005D000ED5EFD4F998190838F5F8093120280932F
:1005E000340281E090E0ECCF61E0CE0101960E9400
:1005F0002701F7CF0F931F93CF93DF938B0191E0E8
:100600009093110290E6909333021092120210928E
:100610003402682F85E092E00E94CB02E80119E0E5
:10062000115031F0699185E092E00E94CB02F8CF41
:10063000DF91CF911F910F910C948D0190E080E09C
:100640000895CF93C62F91E09093110290E6909376
:1006500033021092120210923402682F85E092E069
:100660000E94CB026C2F85E092E00E94CB02CF91DA
:100670000C948D014F925F926F927F928F929F9216
:10068000AF92BF92CF92DF92EF92FF920F931F93A0
:10069000CF93DF93CDB7DEB728970FB6F894DEBFC0
:1006A0000FBECDBF882E6A017B01A82EB12C01E0C0
:1006B00010E001C0000F8A95EAF790900101DB017C
:1006C000CA018052914AA740B10981329449A74793
:1006D000B640F8F00929009301016091010183E01F
:1006E0000E94210328960FB6F894DEBF0FBECDBF3F
:1006F000DF91CF911F910F91FF90EF90DF90CF90FE
:10070000BF90AF909F908F907F906F905F904F9031
:10071000089560910201709103018091040190910C
:100720000501A70196010E94DC1029013A01A701E9
:10073000960122273327407F232B242B252B49F09A
:100740009695879577956795F694E794D794C7948F
:10075000EECF27E0660F771F881F991F2A95D1F7E4
:10076000A70196010E94DC10E7E0440C551C661CB2
:10077000771CEA95D1F7E2E05E1A61087108420E33
:10078000531E641E751ED982CA826B825C824D82A2
:10079000F4E0CC0CDD1CEE1CFF1CFA95D1F7CC2448
:1007A000DD2420EFE222FF24E82AEE827F8368879F
:1007B000882D880F880F880FBE016F5F7F4F865D81
:1007C0000E94FA02F501E55FFE4F60816C6080E1F6
:1007D000880D0E94210300959022909201017DCF07
:1007E000E091A001E150EA3008F039C0F0E0E550B6
:1007F000FC4F0C94FE100504300453047604990455
:10080000BC04DF0402052505480582E18093070149
:100810008BEC8093060180E497E7ABE1B0E0809336
:10082000BB019093BC01A093BD01B093BE0180E8D1
:1008300094E8AEE1B0E08093B7019093B801A09343
:10084000B901B093BA0180E893E1ACE1B0E08093E4
:10085000C6019093C701A093C801B093C901089540
:100860008FED809307018EED8093060180EE97E671
:10087000A5E3B0E08093BB019093BC01A093BD01C0
:10088000B093BE0180E099E0ADE3B0E08093B701A2
:100890009093B801A093B901B093BA0188E095E8AC
:1008A000A6E3B0E0D4CF8BEC809307018EED80936C
:1008B00006018CE498EAA1E5B0E08093BB01909337
:1008C000BC01A093BD01B093BE0184EE92EEA1E500
:1008D000B0E08093B7019093B801A093B901B093B1
:1008E000BA0184E99CE2A8E0B0E0B1CF8BE180934B
:1008F00007018EED8093060180EC9FECAAE6B0E044
:100900008093BB019093BC01A093BD01B093BE0145
:1009100080EA93E6AFE6B0E08093B7019093B80128
:10092000A093B901B093BA0180ED90EFABE6B0E0CF
:100930008ECF87E5809307018EED8093060180E2DC
:100940009DE1AAE9B0E08093BB019093BC01A09324
:10095000BD01B093BE0180E790EEAAE9B0E08093BC
:10096000B7019093B801A093B901B093BA0180E5A3
:1009700092E9AAE9B0E06BCF85ED809307018EED97
:100980008093060180E89FE9A5EDB0E08093BB016C
:100990009093BC01A093BD01B093BE0180EA90E4A6
:1009A000ADEDB0E08093B7019093B801A093B90189
:1009B000B093BA0180E990ECA6EDB0E048CF82E1B7
:1009C0008093070186E18093060180E292EBA3E128
:1009D000B1E08093BB019093BC01A093BD01B093A3
:1009E000BE0180EA99E4AAE1B1E08093B701909357
:1009F000B801A093B901B093BA0180E29FE2A4E1EB
:100A0000B1E025CF82E1809307018FE48093060156
:100A100080E49FE6A0E4B1E08093BB019093BC0129
:100A2000A093BD01B093BE0180E690E1A8E4B1E0DF
:100A30008093B7019093B801A093B901B093BA0124
:100A400080EA99E5A1E4B1E002CF82E18093070159
:100A500085ED8093060180E99AECABE7B1E08093E5
:100A6000BB019093BC01A093BD01B093BE0180E394
:100A700091E5ADE7B1E08093B7019093B801A09301
:100A8000B901B093BA0180EA91EFABE7B1E0DFCEF4
:100A900082E1809307018EED8093060180E09FE361
:100AA000ABEAB1E08093BB019093BC01A093BD0180
:100AB000B093BE0180E290EEA2EBB1E08093B7016B
:100AC0009093B801A093B901B093BA0180E699E27E
:100AD000ACEAB1E0BCCE4091C6015091C701609133
:100AE000C8017091C90180E00C943A0380912501FE
:100AF00090912601A0912701B09128012EED009739
:100B0000A105B10531F081309105A105B10561F470
:100B100022E12093240185309105A105B10561F4FE
:100B20008FE480932401089582309105A105B105D9
:100B300051F425ED2093240186309105A105B105DE
:100B400051F48BECEECF83309105A105B10551F442
:100B500027E52093240187309105A105B10581F493
:100B600086E1DFCF84309105A105B105A1F62BE127
:100B7000209324010997A105B105A9F68FE1D1CFF2
:100B800088309105A105B105A9F78FEDCACF4F9225
:100B90005F926F927F928F929F92AF92BF92CF920D
:100BA000DF92EF92FF92C090C601D090C701E09013
:100BB000C801F090C901C701B60120E432E44FE05A
:100BC00050E00E94DC1020EA36E841E050E00E944C
:100BD000DC1049015A018091BF01C0922001D092DE
:100BE0002101E0922201F0922301813009F094C0AA
:100BF000C701B60120E836E948E950E00E94DC1060
:100C000029013A0140922501509226016092270164
:100C1000709228010E94760545284628472811F43D
:100C2000109224018091240180930A01C701B6012A
:100C300020E836E948E950E00E94DC1020E432E484
:100C40004FE050E00E94DC102093250130932601F4
:100C500040932701509328010E947605809124013A
:100C6000805E809324018091240180930901809209
:100C7000250190922601A0922701B09228010E949E
:100C800076058091240180930801C701B60120EA0E
:100C900036E841E050E00E94DC1050E1852E57E23A
:100CA000952EA12CB12CA50194010E94DC1020935B
:100CB00025013093260140932701509328010E947B
:100CC00076058091240180930701C701B601A50133
:100CD00094010E94DC1028EE33E040E050E00E94D6
:100CE000DC10209325013093260140932701509377
:100CF00028010E9476058091240180930601FF90CF
:100D0000EF90DF90CF90BF90AF909F908F907F90AB
:100D10006F905F904F9008958092250190922601E8
:100D2000A0922701B09228010E94760589288A287E
:100D30008B2811F4109224018091240180930A01E0
:100D4000C701B60120EA36E841E050E00E94DC101D
:100D500020E1822E27E2922EA12CB12CA501940134
:100D60000E94DC1020932501309326014093270137
:100D7000509328010E9476058091240180930901F7
:100D8000C701B601A50194010E94DC1038EE832E44
:100D900033E0932EA12CB12CA50194010E94DC100C
:100DA0002093250130932601409327015093280179
:100DB0000E94760580912401805E809324018091B9
:100DC000240180930801C701B601A50194010E9486
:100DD000DC1044E6842E912CA12CB12CA5019401A9
:100DE0000E94DC10209325013093260140932701B7
:100DF000509328010E947605809124018093070179
:100E0000C701B601A50194010E94DC102AE030E080
:100E100040E050E064CF8F929F92AF92BF92CF920A
:100E2000DF92EF92FF928091AB019091AC01A09183
:100E3000AD01B091AE01C090C601D090C701E09065
:100E4000C801F090C9018C159D05AE05BF0508F4D9
:100E500078C09C01AD012C193D094E095F0969015B
:100E60007A0181E080930901C0922001D092210192
:100E7000E0922201F0922301C701B60120E137E29E
:100E800040E050E00E94DC1028EE822E23E0922EFB
:100E9000A12CB12CA50194010E94DC102093250106
:100EA0003093260140932701509328010E94760534
:100EB00080912401805E809324018091240180939D
:100EC0000801C701B601A50194010E94DC1034E6B7
:100ED000832E912CA12CB12CA50194010E94DC1031
:100EE0002093250130932601409327015093280138
:100EF0000E9476058091240180930701C701B60105
:100F0000A50194010E94DC102AE030E040E050E0AE
:100F10000E94DC1020932501309326014093270185
:100F2000509328010E947605809124018093060148
:100F3000FF90EF90DF90CF90BF90AF909F908F90F9
:100F40000895C81AD90AEA0AFB0A109209018CCF3F
:100F50008091B20180FF04C00E940B070C946B05C6
:100F60000E94C705FBCF8091D60182FFFCCF089578
:100F700085ED8093BC008091010290910202A091C6
:100F80000302B09104020796A11DB11D23E0B6959E
:100F9000A795979587952A95D1F72091BC0024FDB8
:100FA00003C01092FF010895409101025091020286
:100FB0006091030270910402452B462B472B69F385
:100FC0000097A105B10541F025E32A95F1F700004E
:100FD0000197A109B109E1CF809100020C946C0145
:100FE0000C94CE10CF93DF938BEC80930A0183E8AF
:100FF00080930901109208010E94F0030E94B30738
:10100000C1E0DAE08091D60180FD0DC08091A001A1
:101010008F5F8B3051F18093A0010E94F00380918B
:10102000D60180FFFCCF8091D60181FD0CC080915C
:10103000A0018150E9F08093A0010E94F00380910B
:10104000D60181FFFCCF8091D60182FDDBCF60917C
:10105000A00190E080E00E94F0070E94B3070E9488
:10106000C705DF91CF910C946B05C093A001D5CF3C
:10107000D093A001E2CF0C94C6101F920F920FB62E
:101080000F9211242F933F938F939F93AF93BF930E
:1010900080918E0190918F01A0919001B09191016A
:1010A00030918D0123E0230F2D3758F50196A11DB6
:1010B000B11D20938D0180938E0190938F01A09399
:1010C0009001B09391018091920190919301A09130
:1010D0009401B09195010196A11DB11D80939201DB
:1010E00090939301A0939401B0939501BF91AF9118
:1010F0009F918F913F912F910F900FBE0F901F9056
:10110000189526E8230F0296A11DB11DD2CF1F927C
:101110000F920FB60F9211242F933F934F935F932B
:101120006F937F938F939F93AF93BF93EF93FF93AF
:101130008091B900887F803609F44AC0F0F5883282
:1011400009F4A7C018F5803109F49BC0B8F48823CE
:1011500009F4F9C0883009F494C0FF91EF91BF9170
:10116000AF919F918F917F916F915F914F913F913F
:101170002F910F900FBE0F901F901895883109F492
:1011800088C0803251F78093FD0114C0803409F487
:101190009DC040F48033B9F38833F9F68093FD01A4
:1011A00085ECB0C0803509F485C0883509F496C057
:1011B000883499F60E94B807D0CF883909F48CC0DA
:1011C00038F5883729F050F4883611F0803729F641
:1011D00083E08093FF0110928C0157C0883809F496
:1011E0007BC0803919F0803809F0B7CF80918C012D
:1011F000803208F071C0E0918C0181E08E0F809305
:101200008C018091BB00F0E0E459FE4F80833DC02B
:10121000803B39F0E0F4803A09F479C0883A09F06B
:101220009CCF84E08093FF0110926B0110926A01C1
:10123000E0919801F0919901099580916A018111DD
:101240000FC081E080936A0110924A0109C0803C7E
:1012500009F4A6CF883C09F4A3CF883B09F07DCFE1
:10126000E0916B0181E08E0F80936B01F0E0E65B13
:10127000FE4F80818093BB0090916B0180916A0149
:1012800029C08091DA018093BB0085EC8093BC007B
:1012900064CF9091FC018091FB01981758F5E09183
:1012A000FC0181E08E0F8093FC01F0E0E552FE4FDF
:1012B0008081E9CFE091FC0181E08E0F8093FC01F9
:1012C0008091BB00F0E0E552FE4F80839091FC01DD
:1012D0008091FB019817C8F285E8D8CFE091FC0116
:1012E00081E08E0F8093FC018091BB00F0E0E5521D
:1012F000FE4F80838091FE0181115CCF81E080935D
:10130000D90184EA8093BC001092FF0126CF85ECBE
:101310008093BC001092FF0180918C01803230F4E8
:10132000E0918C01F0E0E459FE4F108260918C0155
:1013300070E0E0919601F09197018CE691E00995BB
:1013400010928C010ACF1092FD0134CF1F920F92A0
:101350000FB60F9211248F939F938091C4019091A7
:10136000C50101969093C5018093C4019F918F910F
:101370000F900FBE0F901F9018951F920F920FB6EF
:101380000F9211242F933F934F935F936F937F930B
:101390008F939F93AF93BF932091860030918700E6
:1013A0008091C4019091C501B0E0A0E0DC019927D3
:1013B0008827A90170E060E0822B952BA62BB72B24
:1013C0008093D2019093D301A093D401B093D5011F
:1013D000B09B13C037FD11C08091D2019091D30111
:1013E000A091D401B091D50111968093D201909330
:1013F000D301A093D401B093D5018091D1018F5F27
:101400008093D101BF91AF919F918F917F916F9107
:101410005F914F913F912F910F900FBE0F901F90B2
:1014200018951F920F920FB60F9211242F933F938E
:101430004F935F936F937F938F939F93AF93BF93DC
:10144000CF93EF93FF938091B3019091B401A0915A
:10145000B501B091B6010196A11DB11D8093B301F4
:101460009093B401A093B501B093B60180910001AF
:101470008F5F80930001863010F010920001809100
:101480000001823009F442C0B0F4882319F18130A0
:10149000A9F1FF91EF91CF91BF91AF919F918F9162
:1014A0007F916F915F914F913F912F910F900FBE60
:1014B0000F901F9018958430E9F190F1853049F72D
:1014C00061E08AE00E94840080910A018BB960E0AB
:1014D00089E019C061E089E00E9484001AB8CFEF6A
:1014E000CBB960E088E00E94840089B18093D60186
:1014F00061E088E00E948400CAB9CBCF80910601E8
:101500008BB960E08DE00E948400C3CF61E08DE084
:101510000E948400809107018BB960E08CE0F3CFDA
:1015200061E08CE00E948400809108018BB960E04A
:101530008BE0E9CF61E08BE00E948400809109019B
:101540008BB960E08AE0DFCFCF93DF93CDB7DEB712
:101550002C970FB6F894DEBF0FBECDBF789484B53C
:10156000826084BD84B5816084BD85B5826085BD9F
:1015700085B5816085BD80916E00816080936E002D
:10158000109281008091810082608093810080911F
:1015900081008160809381008091800081608093D0
:1015A00080008091B10084608093B1008091B00090
:1015B00081608093B00080917A00846080937A008B
:1015C00080917A00826080937A0080917A008160B5
:1015D00080937A0080917A00806880937A001092DC
:1015E000C1008FEF84B98AB9F8941092B0001092BC
:1015F000B1001092B6001092B2008DE78093B30054
:1016000082E08093B00085E08093B10087E087BBE3
:1016100080917000826080937000789410929B019A
:1016200010929A0110921202109234020E944E01FE
:1016300082E890E0909399018093980183E890E08C
:10164000909397018093960160E085E90E942103C1
:101650006091010183E00E94210362ED87EB0E940B
:101660002103BE016F5F7F4F88E0DB011D928A95E9
:10167000E9F781E08A838FE08C8380E88D838AE1BB
:101680000E94FA0260E281EB0E9421038090020135
:1016900090900301A0900401B090050180929C01FC
:1016A00090929D01A0929E01B0929F0184E090E0F3
:1016B0000E943B0890E0B0E0A0E0CC24D82EE92EB8
:1016C000FA2EC092A101D092A201E092A301F09261
:1016D000A40185E090E00E943B08C80ED11CE11CEB
:1016E000F11CFE2CED2CDC2CCC24C092A101D0925C
:1016F000A201E092A301F092A40186E090E00E9492
:101700003B08C80ED11CE11CF11CFE2CED2CDC2C7E
:10171000CC24C092A101D092A201E092A301F09248
:10172000A40187E090E00E943B08C80ED11CE11C98
:10173000F11CC092A101D092A201E092A301F0920B
:10174000A401C0920201D0920301E0920401F09240
:101750000501CF20CE20CD20C09441F4809202011B
:1017600090920301A0920401B092050184E690E0FA
:10177000A0E0B0E08093C0019093C101A093C201AA
:10178000B093C30182E090E09093B1018093B001E7
:1017900068EE73E080E090E00E94F50090E080E069
:1017A0000E943B088093A0018F3F29F481E0809341
:1017B000A0010E94F2078BEC80930A0183E88093DA
:1017C0000901109208010E94F00368EE73E080E0C6
:1017D00090E00E94F5000E94C7050E946B051092E0
:1017E0007A0080E480937B0082E080937C0082E535
:1017F00080BFF894109280001092810010928200B5
:1018000081E880938100109287001092860080B753
:10181000846080BF87E286BB80916F008162809385
:101820006F0078944FE151EA67E070E081E00E9438
:101830003A0301E010E020EA822E26E8922EAA2444
:10184000A394B12C3AE0432E512C612C712C91E8D9
:10185000292E80918400909185002091D7013091AC
:10186000D801821B930B80389E4308F4A9C3809152
:101870008400909185009093D8018093D701809146
:10188000D60182FD64C04091B3015091B4016091D2
:10189000B5017091B6013FE4ECECFFE9A8ECFA2E3B
:1018A000BBECEB2E83E8382E8091B3019091B4010C
:1018B000A091B501B091B601841B950BA60BB70B97
:1018C000883E23E09207A105B10539F4E0920A01B0
:1018D00030920901109208010DC0883823E1920767
:1018E000A105B10509F0B8C0E0930A01F093090120
:1018F000F092080110920701109206012091D60182
:1019000022FFD2CF803127E29207A105B10508F46A
:10191000BDC06FEF87E090E00E94F0076FEF86E0B8
:1019200090E00E94F0076FEF85E090E00E94F007E2
:101930006FEF84E090E00E94F0076FEF90E080E0AE
:101940000E94F007F0E0E0E009950E94B307809163
:10195000D60180FD3EC08091C6019091C701A09143
:10196000C801B091C901803833EC930739ECA30763
:1019700031E0B30740F54091C0015091C101609141
:10198000C2017091C301840F951FA61FB71F8093DA
:10199000C6019093C701A093C801B093C9011092EA
:1019A000BF014091B7015091B8016091B9017091A8
:1019B000BA01481759076A077B0718F481E080933A
:1019C000BF010E94A80766E970E080E090E00E94F5
:1019D000F5008091D60181FD3DC08091C6019091B6
:1019E000C701A091C801B091C901813241EA9407B1
:1019F00047E0A407B10540F14091C0015091C101F9
:101A00006091C2017091C301841B950BA60BB70BAB
:101A10008093C6019093C701A093C801B093C901F8
:101A20001092BF014091BB015091BC016091BD017A
:101A30007091BE0184179507A607B70718F481E0D7
:101A40008093BF010E94A80766E970E080E090E003
:101A50000E94F50081E0B5C2883C9105A105B10561
:101A600029F420920A011092090134CF803127E233
:101A70009207A105B10509F041CF20920A012DEC92
:101A8000C22EC09209013093080134CF8838F3E1A7
:101A90009F07A105B10508F488C00E94C7050E94F0
:101AA000B3078CEC80930A012091D601609102016A
:101AB00070910301809104019091050122FF35C0CE
:101AC0002091D60120FD12C06F5A71098109910938
:101AD00060930201709303018093040190930501C8
:101AE0000E946B058091D60180FFFCCF8091D601CA
:101AF00081FDDACF8091020190910301A091040150
:101B0000B091050181559F4FAF4FBF4F80930201A8
:101B100090930301A0930401B09305010E946B050B
:101B20008091D60181FFFCCFBFCF6093A10170935C
:101B3000A2018093A3019093A40187E090E00E940A
:101B4000F0076091A1017091A2018091A301909191
:101B5000A401672F782F892F992786E090E00E94B3
:101B6000F0076091A1017091A2018091A301909171
:101B7000A401BC018827992785E090E00E94F00726
:101B80006091A1017091A2018091A3019091A401A3
:101B9000692F77278827992784E090E00E94F00733
:101BA0000E94C7050E94B307D0CE883E23E092076B
:101BB000A105B10518F00E94F207C7CE883C910537
:101BC000A105B10508F47DC08091B201813069F5AD
:101BD0001092B2018091A5019091A601A091A70158
:101BE000B091A8018093C0019093C101A093C2015C
:101BF000B093C3018091A9019091AA019093B10182
:101C00008093B0018091AB019091AC01A091AD01A6
:101C1000B091AE018093C6019093C701A093C80113
:101C2000B093C9010E946B05BBCF81E08093B201E4
:101C30008091B0019091B1019093AA018093A90184
:101C40008091C0019091C101A091C201B091C301E6
:101C50008093A5019093A601A093A701B093A8013A
:101C60001093B1010093B0014092C0015092C101A4
:101C70006092C2017092C3018091C6019091C70128
:101C8000A091C801B091C9018093AB019093AC01C0
:101C9000A093AD01B093AE012091BF0121110CC002
:101CA000885A9D4FAF4FBF4F8093C6019093C70195
:101CB000A093C801B093C9010E946B050E940B0755
:101CC00071CF0A97A105B10508F43FCE2091B2016A
:101CD000213099F58091AB019091AC01A091AD01BB
:101CE000B091AE014091C6015091C7016091C80109
:101CF0007091C90184179507A607B70778F488552E
:101D00009240A109B1098093C6019093C701A093A5
:101D1000C801B093C9012093090144CF885A9D4F4F
:101D2000AF4FBF4F8093C6019093C701A093C801E6
:101D3000B093C9011092090135CF8091B001909103
:101D4000B10101962091BF01213009F098C0873080
:101D5000910504F59093B1018093B0018091B00199
:101D60009091B10184309105E1F1DCF4039709F021
:101D7000ECCD88EE93E0A0E0B0E08093C0019093BA
:101D8000C101A093C201B093C30180910601809369
:101D9000AF014BC044E050E05093B1014093B0011B
:101DA000DDCF8530910509F44DC0069709F0CDCD02
:101DB0008092C0019092C101A092C201B092C30171
:101DC000809108018093AF011092080164E670E0F1
:101DD00080E090E00E94F5008091AF0180930801BF
:101DE000B4CDA8E8CA2EA3E1DA2EE12CF12CC092E2
:101DF000C001D092C101E092C201F092C301809172
:101E000006018093AF011092060164E670E080E065
:101E100090E00E94F5008091AF018093060164E696
:101E200070E080E090E00E94F5001092060164E608
:101E300070E080E090E00E94F5008091AF01809317
:101E4000060183CD20E137E240E050E02093C0015D
:101E50003093C1014093C2015093C30180910701A7
:101E60008093AF011092070164E670E080E090E09B
:101E70000E94F5008091AF018093070166CD873005
:101E8000910504F59093B1018093B0018091B00168
:101E90009091B1018330910509F443C0C4F48130BD
:101EA0009105B1F1029709F050CD84E690E0A0E0F1
:101EB000B0E08093C0019093C101A093C201B093A0
:101EC000C301CCCF1093B1010093B001DFCF8530B7
:101ED000910509F458C094F1069709F036CD809227
:101EE000C0019092C101A092C201B092C301809141
:101EF0000A018093AF0110920A0164E670E080E06D
:101F000090E00E94F5008091AF0180930A011DCD01
:101F10004092C0015092C1016092C2017092C3010F
:101F200034CF88EE93E0A0E0B0E08093C0019093BE
:101F3000C101A093C201B093C30142CFF8E8CF2EF4
:101F4000F3E1DF2EE12CF12CC092C001D092C1014F
:101F5000E092C201F092C301809108018093AF0129
:101F60001092080164E670E080E090E00E94F500C5
:101F70008091AF018093080164E670E080E090E01A
:101F80000E94F50021CF20E137E240E050E02093AD
:101F9000C0013093C1014093C2015093C3018091AD
:101FA00009018093AF011092090164E670E080E0BE
:101FB00090E00E94F5008091AF0180930901C5CCAB
:101FC00080E0F894C090D201D090D301E090D40189
:101FD000F090D501C986DA86EB86FC862091D10186
:101FE0001092D1017894222309F471C08091CF011D
:101FF0009091D001280F392F311D3093D0012093BB
:10200000CF018091CB019091CC01A091CD01B091F5
:10201000CE01B701A601481B590B6A0B7B0B41157A
:1020200081E7580782E06807710508F448C0C901D4
:10203000969587956A017B01C80ED91EE11CF11C9B
:10204000C701B60150E040E00E94DC10C984DA8488
:10205000EB84FC84C092CB01D092CC01E092CD0104
:10206000F092CE011092D0011092CF01DA01C90195
:10207000805A9F40A109B1098B309149A140B10517
:10208000F0F48091CA018823B9F060E074E284EF33
:1020900090E00E94DC108091C6019091C701A09150
:1020A000C801B091C901BA01A901480F591F6A1F9F
:1020B0007B1F81E00E943A0381E08093CA0140E0E7
:1020C00050E0452B09F4C5CB0E940000C0CB88230B
:1020D000B1F38091CA01882391F3F8942091840090
:1020E000309185008091C4019091C501B0E0A0E0DD
:1020F000DC0199278827A90170E060E0822B952BED
:10210000A62BB72BB09B02C037FF11967894409155
:10211000CB015091CC016091CD017091CE016C0149
:102120007D01C41AD50AE60AF70AB701A6014130B3
:102130005A466841710508F4C2CF8093CB01909351
:10214000CC01A093CD01B093CE011092D00110929A
:10215000CF011092D1014FE151EA67E070E081E0D8
:102160000E943A031092CA01AACFE5E0F2E013827E
:10217000128288EE93E0A0E0B0E084839583A6838A
:10218000B78382E191E0918380830895F999FECF2E
:1021900092BD81BDF89A992780B50895262FF999A7
:1021A000FECF1FBA92BD81BD20BD0FB6F894FA9A3A
:1021B000F99A0FBE01960895A1E21A2EAA1BBB1B25
:1021C000FD010DC0AA1FBB1FEE1FFF1FA217B30703
:1021D000E407F50720F0A21BB30BE40BF50B661F19
:1021E000771F881F991F1A9469F7609570958095DD
:1021F00090959B01AC01BD01CF010895EE0FFF1F2B
:102200000590F491E02D0994F894FFCF01FFA0937D
:102210002934FFFFFFFFFF00000000000000CB0299
:0C2220009E021E037402970284027502E5
:107800000C94343C0C94513C0C94513C0C94513CE1
:107810000C94513C0C94513C0C94513C0C94513CB4
:107820000C94513C0C94513C0C94513C0C94513CA4
:107830000C94513C0C94513C0C94513C0C94513C94
:107840000C94513C0C94513C0C94513C0C94513C84
:107850000C94513C0C94513C0C94513C0C94513C74
:107860000C94513C0C94513C11241FBECFEFD8E036
:10787000DEBFCDBF11E0A0E0B1E0ECE9FFE702C060
:1078800005900D92A230B107D9F712E0A2E0B1E065
:1078900001C01D92AD30B107E1F70E942D3D0C945F
:1078A000CC3F0C94003C982F959595959595959582
:1078B000905D8F708A307CF0282F295A8091C0000B
:1078C00085FFFCCF9093C6008091C00085FFFCCF60
:1078D0002093C6000895282F205DF0CF982F809127
:1078E000C00085FFFCCF9093C6000895EF92FF92F1
:1078F0000F931F93EE24FF2487018091C00087FD22
:1079000017C00894E11CF11C011D111D81E4E8164B
:1079100082E4F8068FE0080780E0180770F3E09132
:107920000401F091050109958091C00087FFE9CF1E
:107930008091C6001F910F91FF90EF9008950E94D3
:10794000763C982F8091C00085FFFCCF9093C600B5
:1079500091362CF490330CF09053892F089597555D
:10796000892F08951F930E949F3C182F0E949F3CCF
:107970001295107F810F1F9108951F93182F882350
:1079800021F00E94763C1150E1F71F9108951F935A
:10799000182F0E94763C803249F0809103018F5F5E
:1079A000809303018530C1F01F9108958091C0003C
:1079B00085FFFCCF84E18093C6008091C00085FFE5
:1079C000FCCF1093C6008091C00085FFFCCF80E102
:1079D0008093C6001F910895E0910401F091050184
:1079E00009951F9108950E94763C803241F0809164
:1079F00003018F5F80930301853081F008958091AA
:107A0000C00085FFFCCF84E18093C6008091C00058
:107A100085FFFCCF80E18093C6000895E0910401CA
:107A2000F09105010995089540E951E08823A1F0FE
:107A30002D9A28EE33E0FA013197F1F721503040CA
:107A4000D1F72D9828EE33E0FA013197F1F7215064
:107A50003040D1F7815061F708953F924F925F9285
:107A60006F927F928F929F92AF92BF92CF92DF924E
:107A7000EF92FF920F931F93CF93DF93000080E16B
:107A80008093C4001092C50088E18093C10086E015
:107A90008093C2005098589A259A81E00E94143D24
:107AA00024E1F22E9EE1E92E85E9D82E0FE0C02ECA
:107AB00010E1B12EAA24A394B1E49B2EA6E58A2E50
:107AC000F2E57F2EE0E26E2E79E4572E63E5462E36
:107AD00050E5352E0E94763C8033B1F18133B9F107
:107AE000803409F46FC0813409F476C0823409F41B
:107AF00085C0853409F488C0803531F1823521F1A3
:107B0000813511F1853509F485C0863509F48DC0BC
:107B1000843609F496C0843709F403C1853709F423
:107B200072C1863709F466C0809103018F5F80932C
:107B30000301853079F6E0910401F0910501099582
:107B40000E94763C803351F60E94F33CC3CF0E94E2
:107B5000763C803249F78091C00085FFFCCFF092DF
:107B6000C6008091C00085FFFCCF9092C600809136
:107B7000C00085FFFCCF8092C6008091C00085FFC9
:107B8000FCCF7092C6008091C00085FFFCCF609250
:107B9000C6008091C00085FFFCCF5092C600809146
:107BA000C00085FFFCCF4092C6008091C00085FFD9
:107BB000FCCF3092C6008091C00085FFFCCFB09210
:107BC000C60088CF0E94763C863808F4BDCF0E945C
:107BD000763C0E94F33C7ECF0E94763C803809F4CC
:107BE0009CC0813809F40BC1823809F43CC1883942
:107BF00009F48FC080E00E94C73C6CCF84E10E94F2
:107C0000BD3C0E94F33C66CF85E00E94BD3C0E94D3
:107C1000F33C60CF0E94763C809306010E94763C44
:107C2000809307010E94F33C55CF0E94763C80333D
:107C300009F41DC183E00E94BD3C80E00E94C73C66
:107C400049CF0E94763C809309020E94763C809343
:107C5000080280910C028E7F80930C020E94763C79
:107C6000853409F415C18091080290910902892B8D
:107C700089F000E010E00E94763CF801E85FFE4FDA
:107C800080830F5F1F4F80910802909109020817AF
:107C9000190788F30E94763C803209F045CF809125
:107CA0000C0280FF01C16091060170910701660F0F
:107CB000771F7093070160930601A0910802B091AD
:107CC00009021097C9F0E8E0F1E09B01AD014E0F09
:107CD0005F1FF999FECF32BD21BD819180BDFA9A17
:107CE000F99A2F5F3F4FE417F50799F76A0F7B1F4B
:107CF00070930701609306018091C00085FFFCCF5F
:107D0000F092C6008091C00085FFFCCFB092C60003
:107D1000E1CE83E00E94C73CDDCE82E00E94C73CFA
:107D2000D9CE0E94763C809309020E94763C8093D3
:107D300008028091060190910701880F991F909386
:107D40000701809306010E94763C853409F4A6C0A1
:107D500080910C028E7F80930C020E94763C8032D0
:107D600009F0B8CE8091C00085FFFCCFF092C6002C
:107D7000609108027091090261157105B9F140E046
:107D800050E080910C02A82FA170B82FB27011C0E2
:107D9000BB2309F45CC0E0910601F0910701319624
:107DA000F0930701E09306014F5F5F4F46175707B7
:107DB000E8F4AA2369F3F999FECF209106013091E6
:107DC000070132BD21BDF89A90B58091C00085FFB2
:107DD000FCCF9093C6002F5F3F4F30930701209355
:107DE00006014F5F5F4F4617570718F38091C00099
:107DF00085FDE5CE8091C00085FFF8CFE0CE81E023
:107E00000E94C73C67CE0E94763C803209F08CCE3F
:107E10008091C00085FFFCCFF092C6008091C00029
:107E200085FFFCCFE092C6008091C00085FFFCCFAB
:107E3000D092C6008091C00085FFFCCFC092C600E2
:107E40008091C00085FFFCCFB092C60043CEE09188
:107E50000601F091070194918091C00085FFFCCF4D
:107E60009093C6009CCF80E10E94C73C33CE0E9415
:107E7000763C0E94763C182F0E94763C112309F430
:107E800083C0113009F484C08FE00E94C73C22CE29
:107E900080910C02816080930C02E5CE80910C02EF
:107EA000816080930C0259CF809107018823880F4D
:107EB000880B8A2180930B02809106019091070123
:107EC000880F991F90930701809306018091080203
:107ED00080FF09C080910802909109020196909359
:107EE000090280930802F894F999FECF1127E091D6
:107EF0000601F0910701C8E0D1E08091080290915D
:107F00000902103091F40091570001700130D9F34B
:107F100003E000935700E89500915700017001308D
:107F2000D9F301E100935700E89509901990009169
:107F3000570001700130D9F301E000935700E89534
:107F40001395103498F011270091570001700130FB
:107F5000D9F305E000935700E895009157000170B0
:107F60000130D9F301E100935700E895329602976A
:107F700009F0C7CF103011F00296E5CF112480919F
:107F8000C00085FFB9CEBCCE8EE10E94C73CA2CD19
:0E7F900085E90E94C73C9ECDF894FFCF80008B
:00000001FF
